0000000000000047CHESELINE GEL FCO X280                                      NS000000871819020700000779129302128700001002XXXXXX
0000000000000048CHESELINE GEL POMO X150                                     NS000000567819020700000779129302127000001002XXXXXX
0000000000000051COLBERT EDT X60                                             NS000001485019020700000779160019204400001002XXXXXX
0000000000000055COLBERT DES AE X150                                         NS000000774819020700000779160019237200001002XXXXXX
0000000000000056COLBERT DES AE X250                                         NS000000848619020700000779160019248800001002XXXXXX
0000000000000059COLBERT PINO EDT X60                                        NS000001439819020700000779160057142900001002XXXXXX
0000000000000062COLBERT PINO DES AE X150                                    NS000000774819020700000779160057153500001002XXXXXX
0000000000000063COLBERT PINO DES AE X250                                    NS000000848619020700000779160057164100001002XXXXXX
0000000000000064COLBERT NOIR EDT X60                                        NS000001704519020700000779160017432300001002XXXXXX
0000000000000068COLBERT NOIR DES AE X150                                    NS000000774819020700000779160017465100001002XXXXXX
0000000000000069COLBERT NOIR DES AE X250                                    NS000000848619020700000779160017476700001002XXXXXX
0000000000000081CRANDALL EDT X95                                            NS000001478619020700000779160007006900001002XXXXXX
0000000000000084CRANDALL DEO AE X150                                        NS000000701019020700000779160007091500001002XXXXXX
0000000000000085CRANDALL DEO AE X250                                        NS000000804319020700000779160007207000001002XXXXXX
0000000000000087DEPILORM CR X30 ROSTRO DEP                                  NS000000383119020700000779158000200500001002XXXXXX
0000000000000103CHESTER ICE AFTER SHAVE X100                                NS000001414019020700000779160006036700001002XXXXXX
0000000000000105EFFICIENT TAL X100                                          NS000000397319020700000779129302777700001002XXXXXX
0000000000000120EMAL DIAMA CR DEP X30                                       NS000000372619020700000779158000100800001002XXXXXX
0000000000000121EMAL DIAMA CR DEP X60                                       NS000000410019020700000779158000101500001002XXXXXX
0000000000000122EMAL DIAMA CR DEP X130                                      NS000000479019020700000779158000102200001002XXXXXX
0000000000000123EMAL DIAMA CE DEP X200 NAT CAJ                              NS000000506719020700000779158000303300001002XXXXXX
0000000000000124EMAL DIAMA CE DEP X200 NEG CAJ                              NS000000506719020700000779158000403000001002XXXXXX
0000000000000125EMAL DIAMA CE DEP X200 VEGET L                              NS000000586919020700000779158000505100001002XXXXXX
0000000000000129ALGODON ESTRELLA X100 SUPER                                 NS000000271719020700000779006400170100001002XXXXXX
0000000000000130ALGODON ESTRELLA X200 SUPER                                 NS000000520119020700000779006400171800001002XXXXXX
0000000000000131ESTRELLA DISCO DEMAQ X80 BOLSA                              NS000000273019020700000779006400190900001002XXXXXX
0000000000000190HEN PRAVIA COL X250                                         NS000000639819020700000779039610308100001002XXXXXX
0000000000000191HEN PRAVIA COL X500                                         NS000001089119020700000779039610307400001002XXXXXX
0000000000000196HINDS CR X250 DOBLE VIT.A                                   NS000000576519020700000779464017122200001002XXXXXX
0000000000000197HINDS CR X350 DOBLE VIT.A                                   NS000000795119020700000779464017129100001002XXXXXX
0000000000000211INECTO SAVIA X150                                           NS000000282119020700000779474000501400001002XXXXXX
0000000000000212INECTO SAVIA X500                                           NS000000461319020700000779474000502100001002XXXXXX
0000000000000214INECTO NEUTRALIZ X150                                       NS000000343219020700000779474000830500001002XXXXXX
0000000000000216INECTO BASE PERM X150 NORMAL                                NS000000509819020700000779474000826800001002XXXXXX
0000000000000228JOHNS ACEITE X100                                           NS000000469119020700000779001095978000001002XXXXXX
0000000000000229JOHNS ACEITE X200                                           NS000000796119020700000779001095979700001002XXXXXX
0000000000000242JOHNS CH X750 MANZANILLA                                    NS000001663719020700000779001057055800001002XXXXXX
0000000000000247JOHNS JAB X80 GLICERINA                                     NS000000226719020700000789101066984300001002XXXXXX
0000000000000259MARY STUART COL X20                                         NS000000880019020700000779604500018300001002XXXXXX
0000000000000260MARY STUART COL X55                                         NS000001320019020700000779604500019000001002XXXXXX
0000000000000261MARY STUART COL X110                                        NS000001705019020700000779604500020600001002XXXXXX
0000000000000263MUJERCITAS COL X80                                          NS000001084719020700000779160059512800001002XXXXXX
0000000000000264MUJERCITAS DEO AE X123                                      NS000000634619020700000779160059534000001002XXXXXX
0000000000000282NOVELTEX DES CR X65 VDE                                     NS000000315219020700000000007790047000001002XXXXXX
0000000000000283NOVELTEX ANT CR X65 BCA NVO                                 NS000000315219020700000000007790651900001002XXXXXX
0000000000000288OB MINI TAMPON X10                                          NS000000444719020700000789101060480600010002XXXXXX
0000000000000289OB MEDIO TAMPON X10                                         NS000000444719020700000789101060481300010002XXXXXX
0000000000000290OB SUPER TAMPON X10                                         NS000000444719020700000789101060488200010002XXXXXX
0000000000000291OB MINI TAMPON X20                                          NS000000756119020700000789101060489900020002XXXXXX
0000000000000292OB MEDIO TAMPON X20                                         NS000000756119020700000789101060490500020002XXXXXX
0000000000000293OB SUPER TAMPON X20                                         NS000000756119020700000789101060491200020002XXXXXX
0000000000000297ODOL DENT X180 DIENTES BLANCOS                              NS000000532619020700000779310013010600001002XXXXXX
0000000000000299ODOL DENT X90 DIENTES BLANCOS                               NS000000275419020700000779310013009000001002XXXXXX
0000000000000302ODORONO DES CR X60 POTE                                     NS000000431519020700000000007794070400001002XXXXXX
0000000000000304OFF CR X60 ACTIVE                                           NS000000331919020700000000007790030200001002XXXXXX
0000000000000316PACO COL X90                                                NS000001123519020700000779160017302900001002XXXXXX
0000000000000332AGUA OXI 10 V X100 DOREE                                    NS000000080519020700000779405000701200001002XXXXXX
0000000000000333AGUA OXI 20 V X100 DOREE                                    NS000000086219020700000779405000702900001002XXXXXX
0000000000000334AGUA OXI 30 V X100 DOREE                                    NS000000089019020700000779405000705000001002XXXXXX
0000000000000335AGUA OXI 20 V X100 CR DOREE                                 NS000000110219020700000779405000721000001002XXXXXX
0000000000000336AGUA OXI 30 V X100 CR DOREE                                 NS000000114419020700000779405000724100001002XXXXXX
0000000000000353PIBES COL X80                                               NS000000962019020700000779160005009200001002XXXXXX
0000000000000385PONDS C CR X100 LIMPIEZA C/PEP                              NS000000934619020700000750105632488900001002XXXXXX
0000000000000387PONDS S CR X100 HUMECTANTE                                  NS000000934619020700000750105632614200001002XXXXXX
0000000000000392POXIPOL LA GOTITA X 1                                       NS000000235519020700000000007791718800001003XXXXXX
0000000000000393POXIPOL 10 MIN X14 GRIS                                     NS000000640619020700000779040001452500001003XXXXXX
0000000000000394POXIPOL POXILINA X38                                        NS000000702119020700000779412200187000001003XXXXXX
0000000000000395POXIPOL POXIRAN X25                                         NS000000420819020700000779412201307100001003XXXXXX
0000000000000396POXIPOL VOLIGOMA X30                                        NS000000160319020700000779040001050300001003XXXXXX
0000000000000397POXIPOL FASTIX X25 BLANCO                                   NS000000768019020700000779412200523600001003XXXXXX
0000000000000424RAID EXTERM.CUCARACHA X390                                  NS000000744119020700000779052001757400001002XXXXXX
0000000000000447FERRINI SAPOLAN X95                                         NS000000485219020700000779029900001200001002XXXXXX
0000000000000448FERRINI SAPOLAN X195                                        NS000000638019020700000779029900002900001002XXXXXX
0000000000000538VERITAS JAB X120 BEBE                                       NS000000259919020700000779152002603000001002XXXXXX
0000000000000539WATTEAU COL FRESCA X220                                     NS000000825219020700000779013321903700001002XXXXXX
0000000000000540WATTEAU COL LAVANDA X220                                    NS000000825219020700000779013321902000001002XXXXXX
0000000000000541WATTEAU COL AMBRE X220                                      NS000000825219020700000779013321901300001002XXXXXX
0000000000000570VIDOL FECULA X250 BOLSA                                     NS000000353319020700000779037100017600001002XXXXXX
0000000000000571BUSTOLAN CR X60 C                                           NS000000489919020700000779158001407700001002XXXXXX
0000000000000572BUSTOLAN CR X60 V                                           NS000000489919020700000779158001408400001002XXXXXX
0000000000000573CAPILATIS AC X500 P/PIOJOS                                  NS000001128119020700000779264000461800001002XXXXXX
0000000000000574CAPILATIS CH X420 GRASO                                     NS000001022819020700000779264000230000001002XXXXXX
0000000000000576CAPILATIS CH X420 DAADOS                                    NS000001022819020700000779264000237900001002XXXXXX
0000000000000577CAPILATIS CH X420 ORTIGA                                    NS000001045519020700000779264000032000001002XXXXXX
0000000000000578CAPILATIS CH X420 PROTEC CAPIL                              NS000001022819020700000779264000700800001002XXXXXX
0000000000000581CAPILATIS CH X420 ANTI-AGE                                  NS000001022819020700000779264000710700001002XXXXXX
0000000000000587CAPILATIS SAVIA X500 BRILLANTE                              NS000000825419020700000779264000036800001002XXXXXX
0000000000000591CAPILATIS LOC X120 ORTIGA                                   NS000000757319020700000779264000714500001002XXXXXX
0000000000000594MARY STUART CR X230 LECHE PEPI                              NS000000495019020700000779604500045900001002XXXXXX
0000000000000640LIMAS ESMERIL X12 N17                                       NS000000176819020700000779492250172300012003XXXXXX
0000000000000657VOLBUCLE SAVIA X500                                         NS000000752219020700000779106100004900001002XXXXXX
0000000000000667PET ENFANT COL X60                                          NS000001259319020700000779348701430300001002XXXXXX
0000000000000668PET ENFANT COL X120                                         NS000001399919020700000779348701401300001002XXXXXX
0000000000000671PET ENFANT FECULA X100                                      NS000000579919020700000779348707407900001002XXXXXX
0000000000000693SARNOL JAB X125                                             NS000000405619020700000779152000205800001002XXXXXX
0000000000000704PET ENFANT AC X240                                          NS000000556519020700000779348703482000001002XXXXXX
0000000000000794LABELLO PROT LAB CLASSIC ESSEN                              NS000000580119020700000779196985061600001002XXXXXX
0000000000000848ETIQUET DES BOL X60 NVO CLASIC                              NS000000356619020700000779449063024500001002XXXXXX
0000000000000851ETIQUET DES BOL X60 NVO HOMBRE                              NS000000356619020700000779449063051100001002XXXXXX
0000000000000868CAPILATIS LOC X60 ORTIGA CONC                               NS000000833619020700000779264000039900001002XXXXXX
0000000000000874FRAG.AZZARO EDT X30 MEN                                     NS000007803319020700000335150098170000001002XXXXXX
0000000000000883FRAG.GIVEN GENTLEMAN EDT X50                                NS000011726019020700000327487193587800001002XXXXXX
0000000000000891PACO COL X30                                                NS000000832919020700000779160017324100001002XXXXXX
0000000000000892VENADO 155 PEINE BOLSILLO                                   NS000000275019020700000000000002243300001003XXXXXX
0000000000000893VENADO 187 PEINE RULERO                                     NS000000351419020700000000000002243700001003XXXXXX
0000000000000923ORAL B HILO SUPER FLOSS ORTODO                              NS000001096819020700000780000506402000001002XXXXXX
0000000000000950DIX L EXTREME EDT X40 VAP                                   NS000001414019020700000779160024356200001002XXXXXX
0000000000000960FRAG.AMARIGE EDT X50 SP FEM                                 NS000011980019020700000327487812255400001002XXXXXX
0000000000000961FRAG.FAHRENHEIT EDT X50 MEN                                 NS000008803919020700000334890001218900001002XXXXXX
0000000000000965FRAG.ANAIS ANAIS EDT X30 FEM                                NS000006786419020700000336037051204400001002XXXXXX
0000000000000967AGUA OXI 2O V X100 HIERBA DORE                              NS000000111619020700000779405000722700001002XXXXXX
0000000000000968AGUA OXI 30 V X100 HIERBA DORE                              NS000000115819020700000779405000725800001002XXXXXX
0000000000001022FRAG.PACO RABAN EDT X50 SP MEN                              NS000009237219020700000334966802154300001002XXXXXX
0000000000001036PET ENFANT JAB X100 C/CAJA                                  NS000000462719020700000779348706403200001002XXXXXX
0000000000001066FRAG.EAU SAVAGE EDT X50 MEN                                 NS000009617819020700000334890062750500001002XXXXXX
0000000000001111ODOL DENT X70 DIENTES BLANCOS                               NS000000232919020700000779310013008300001002XXXXXX
0000000000001117NIVEA CR POTE X100                                          NS000000761619020700000780495595048800001002XXXXXX
0000000000001118NIVEA CR POTE X200                                          NS000001174719020700000780495595049500001002XXXXXX
0000000000001131DERMO EXP REVITALIFT F30 X50                                NS000003596019020700000750955290797100001002XXXXXX
0000000000001145OFF ACTIVE SP X200 EXTRA                                    NS000001715319020700000779052000952400001002XXXXXX
0000000000001149ESPONJA 850 VEGETAL LUZON                                   NS000000184819020700000779623500850000001003XXXXXX
0000000000001170CAPILATIS TRAT X200 NUTRITIVO                               NS000000661119020700000779264000233100001002XXXXXX
0000000000001172CAPILATIS TRAT X200 SECO                                    NS000000661119020700000779264000236200001002XXXXXX
0000000000001241FRAG.KENZO EDT X50 SP H                                     NS000011516619020700000335281760725300001002XXXXXX
0000000000001274PREAL COL X500L LUJO AMBRE                                  NS000000484419020700000779037100527000001002XXXXXX
0000000000001287ESPONJA 200 RED/LABRADA GR.LUZ                              NS000000093519020700000779623500200300001003XXXXXX
0000000000001288ESPONJA 300 RED.C/VEGETAL LUZO                              NS000000158419020700000779623500300000001003XXXXXX
0000000000001289ESPONJA 400 MANGO LUZON                                     NS000000277219020700000779623500400700001003XXXXXX
0000000000001290ESPONJA 700 ANIMALITOS LUZON                                NS000000093519020700000779623500700800001003XXXXXX
0000000000001291ESPONJA 751 MAN/ECON LUZON                                  NS000000488419020700000779623500751000001003XXXXXX
0000000000001313FRAG.KENZO FLOWER EDP X30 V FE                              NS000008933019020700000335281851680600001002XXXXXX
0000000000001319PACO DEO AE X150                                            NS000000656719020700000779160017335700001002XXXXXX
0000000000001343RICIBRILL FIJ LIQ X45 AZUL                                  NS000000558819020700000779812647010600001002XXXXXX
0000000000001344RICIBRILL FIJ LIQ X85 AZUL                                  NS000000800119020700000779812647012000001002XXXXXX
0000000000001345RICIBRILL FIJ LIQ X160 AZUL                                 NS000001066819020700000779812647014400001002XXXXXX
0000000000001346PREAL COL X500 INGLESA                                      NS000000484419020700000779037100526300001002XXXXXX
0000000000001349FRAG.CAR HERRERA EDT X30 SP ME                              NS000006677519020700000841106108182200001002XXXXXX
0000000000001352INECTO DEC CAP X150 ACEI                                    NS000000373219020700000779474000402400001002XXXXXX
0000000000001353WATTEAU COL FRESCA X110                                     NS000000546419020700000779013310903100001002XXXXXX
0000000000001354WATTEAU COL LAVANDA X110                                    NS000000546419020700000779013310902400001002XXXXXX
0000000000001355WATTEAU COL AMBRE X110                                      NS000000546419020700000779013310901700001002XXXXXX
0000000000001356WATTEAU COL FRESCA X440                                     NS000001298419020700000779013344003500001002XXXXXX
0000000000001357WATTEAU COL LAVANDA X440                                    NS000001298419020700000779013344002800001002XXXXXX
0000000000001358WATTEAU COL AMBRE X440                                      NS000001298419020700000779013344001100001002XXXXXX
0000000000001366HEN PRAVIA JAB X150                                         NS000000232919020700000779039610410100001002XXXXXX
0000000000001372FRAG.CAR HERRERA EDT X50 SP ME                              NS000009756619020700000841106108170900001002XXXXXX
0000000000001390BABELITO PLATO C/JUEGO CUBIERT                              NS000002133619020700000779397025101700001003XXXXXX
0000000000001393BABELITO MAM X250 T2 C/ASAS                                 NS000001433919020700000779397013002200001003XXXXXX
0000000000001400BABELITO LIMPIABIBERON C/MANGO                              NS000000991619020700000779397012176100001003XXXXXX
0000000000001418BABELITO CUBIERTOS 25120                                    NS000000638419020700000779397025120800001003XXXXXX
0000000000001447ANTIALL TRAT X150 TIERRA MINER                              NS000000376419020700000779152009767200001002XXXXXX
0000000000001455ESTRELLA DEMAQ X50 POMPON                                   NS000000295919020700000779006400202900001002XXXXXX
0000000000001458NIVEA ESP AF X200 EXT.HIDRAT                                NS000000739019020700000400590007127900001002XXXXXX
0000000000001483DEPILORM CR X60 ALOE DEP ROST                               NS000000420119020700000779158000202900001002XXXXXX
0000000000001506COQUETERIAS COL X40 FLOWERS                                 NS000000936219020700000779160004703000001002XXXXXX
0000000000001514ESPONJA 800 HUESO LUZON                                     NS000000099019020700000779623500800500001003XXXXXX
0000000000001628CARILINA PA EXP 27X10 5475                                  NS000001323319020700000779025005475700027002XXXXXX
0000000000001699CHESTER ICE DEO X150                                        NS000000701019020700000779160006047300001002XXXXXX
0000000000001717COQUETERIAS COL X80 FLOWERS                                 NS000001084719020700000779160004711500001002XXXXXX
0000000000001737CHESTER ICE EDT X100                                        NS000001736819020700000779160006003900001002XXXXXX
0000000000001814BABELITO JABON HUM X90 EXT AVE                              NS000000178319020700000779397055132200001003XXXXXX
0000000000001815FARMACO JAB.X100 AZUFRE                                     NS000000405619020700000779152000106800001002XXXXXX
0000000000001845RAYITO SOL F6 BR EMUL COL X200                              NS000001957819020700000779604510230600001002XXXXXX
0000000000001887PAMPERS REC NAC X20                                         NS000001426019020700000750619510094300020002XXXXXX
0000000000001938JOHNS AC X200 MANZANILLA                                    NS000000544119020700000779001057067100001002XXXXXX
0000000000001939JOHNS AC X400 MANZANILLA                                    NS000000951719020700000779001057068800001002XXXXXX
0000000000001940HISOPOS JOHNSON X100                                        NS000000368619020700000770203124152200001002XXXXXX
0000000000001949JOHNS PROTECTOR MAMARIO X12                                 NS000000423619020700000789101010168800012002XXXXXX
0000000000001950SIE LI TOA X8 MAX SUA U/F C/A                               NS000000398219020700000779001059927600008002XXXXXX
0000000000001975ESTRELLA PROT MAMARIO X12                                   NS000000178719020700000779006400197800012002XXXXXX
0000000000001993FLOWER ROSE DESX123                                         NS000000656719020700000779160006644400001002XXXXXX
0000000000001994FLOWER ROSE COL X250 FCO                                    NS000001313519020700000779160006672700001002XXXXXX
0000000000002014JESSAMY CEP ARA¥A PLASTICO J14                              NS000000287019020700000489232740014600001002XXXXXX
0000000000002015JESSAMY CEP ARA¥A MINI C13                                  NS000000048819020700000779492255191900001002XXXXXX
0000000000002020ALICATE CHI 1777 X1                                         NS000000079919020700000000000001545500001003XXXXXX
0000000000002083KEVIN EDT X60 C/VAP.                                        NS000001804819020700000779160003701700001002XXXXXX
0000000000002123JOHNS LOC ROSA X200                                         NS000000747819020700000789101003718500001002XXXXXX
0000000000002137GORRO DUCHA PASTORA G22                                     NS000000270619020700000779492250232400001003XXXXXX
0000000000002140ALCOHOL X 500 PORTA                                         NS000000280119020700000779013900363000001002XXXXXX
0000000000002141ALCOHOL X 250 PORTA                                         NS000000193819020700000779013900361600001002XXXXXX
0000000000002142ALCOHOL X 1000 PORTA                                        NS000000472219020700000779013900362300001002XXXXXX
0000000000002174ESPONJA 750 MANOPLA TOALLA/VEG                              NS000000537119020700000779623500750300001003XXXXXX
0000000000002186NIVEA SUN F60 SWIMPL CRX15                                  NS000002469719020700000400580851667400001002XXXXXX
0000000000002192NIVEA FAC CR ESENC NUT/SEC X50                              NS000001575519020700000400580855300600001002XXXXXX
0000000000002214FRAG.EDEN EDP X50 SP FEM                                    NS000011772219020700000336037304887800001002XXXXXX
0000000000002226CHESTER ICE DEO X250                                        NS000000804319020700000779160006058900001002XXXXXX
0000000000002243POXIPOL 10 MIN X14 TRANSP.                                  NS000000640619020700000779040001453200001003XXXXXX
0000000000002274ESTRELLA PAO LIMPIADO BABYX40                               NS000000404019020700000779006400210400001002XXXXXX
0000000000002291BONM 10.3 RUB.EXT.CL.D                                      NS000000178519020700000779144200263100001002XXXXXX
0000000000002297COMODIN RECTO X10 GRANDE                                    NS000000859419020700000779122915278800010002XXXXXX
0000000000002298COMODIN RECTO X20 EXT GDE                                   NS000001838219020700000779122900805400020002XXXXXX
0000000000002306PRIME PRES X3 ANATO VERDE CLAR                              NS000000234719020700000779151920002100003002XXXXXX
0000000000002314GORRO PILETA COD.G45 LYCRA                                  NS000001023019020700000779492250630800001003XXXXXX
0000000000002345MONEGAR CE DEP X200 MIEL LATA                               NS000000842619020700000779472803117200001002XXXXXX
0000000000002346MONEGAR CE DEP X200 VEGETAL LA                              NS000000842619020700000779472803127100001002XXXXXX
0000000000002362EMAL DIAMA CR DEP X130 A/VERA                               NS000000484619020700000779158000104600001002XXXXXX
0000000000002363EMAL DIAMA CE DEP X200 MIEL LA                              NS000000586919020700000779158000304000001002XXXXXX
0000000000002419OYONNAX 1 PEINE BOLSILLO                                    NS000000214819020700000779078301105000001002XXXXXX
0000000000002420OYONNAX 2 PEINE BOLSILLO                                    NS000000214819020700000779078302155400001002XXXXXX
0000000000002421OYONNAX 6 PEINE CABALLERO                                   NS000000359219020700000779078306170300001002XXXXXX
0000000000002422OYONNAX 7 PEINE RULERO                                      NS000000381119020700000779078307187000001002XXXXXX
0000000000002423OYONNAX 8 PEINE DAMA C/MANG                                 NS000000465519020700000779078308188600001002XXXXXX
0000000000002424OYONNAX 10 PEINE TOILETTE                                   NS000000522919020700000779078310180500001002XXXXXX
0000000000002425OYONNAX 11 PEINE TOILETTE                                   NS000000572019020700000779078311190300001002XXXXXX
0000000000002427OYONNAX 14 PEINE AFRO                                       NS000000889219020700000779078314194800001003XXXXXX
0000000000002428OYONNAX 15 PEINE AFRO                                       NS000001173719020700000779078315195400001002XXXXXX
0000000000002530PIEDRA ALASKA CT                                            NS000000099019020700000779492250273700001002XXXXXX
0000000000002533JOHNS ACEITE X200 ALOE VERA                                 NS000000796119020700000779001096002100001002XXXXXX
0000000000002594SIE LI TOA X8 FIT SIN ALAS                                  NS000000353619020700000779001059661900008002XXXXXX
0000000000002663PROCER MUSLERA NEOP 1 261                                   NS000002339119020700000000000002029200001003XXXXXX
0000000000002669PROCER CODERA NEOP TERM 3 265                               NS000001601319020700000000000001665800001003XXXXXX
0000000000002670PROCER CODERA NEOP TERM 2 265                               NS000001601319020700000000000001665700001003XXXXXX
0000000000002761BABELITO JUGUERA X125 PP T/S J                              NS000000854319020700000779397013571300001003XXXXXX
0000000000002801BABELITO SUCC.LECHE MA.10020                                NS000002600919020700000779397010020900001003XXXXXX
0000000000002802BABELITO BA¥O LIQ X200 BEBE                                 NS000000383619020700000779397055130800001003XXXXXX
0000000000002839CAPILATIS CH X420 NUTRITIVO                                 NS000001022819020700000779264000231700001002XXXXXX
0000000000002840CAPILATIS AC X420 NUTRITIVO                                 NS000001022819020700000779264000232400001002XXXXXX
0000000000002841CAPILATIS CH X420 SECO                                      NS000001022819020700000779264000234800001002XXXXXX
0000000000002842CAPILATIS AC X420 SECO                                      NS000001022819020700000779264000235500001002XXXXXX
0000000000002843CAPILATIS AC X420 ORTIGA                                    NS000001045519020700000779264000031300001002XXXXXX
0000000000002905PET ENFANT EST 9 JAB+TALCO                                  NS000001107119020700000779348705456900001002XXXXXX
0000000000002906PET ENFANT JAB X100 GLICERINA                               NS000000556519020700000779348706434600001002XXXXXX
0000000000002907PET AMOUR COL X60                                           NS000001259319020700000779348701463100001002XXXXXX
0000000000002909PET PRINCE COL X120                                         NS000001399919020700000779348701461700001002XXXXXX
0000000000002910PET ENFANT AGUA AZAHAR X120                                 NS000001282819020700000779348701433400001002XXXXXX
0000000000002911PET ENFANT AGUA AZAHAR X60                                  NS000001142219020700000779348701449500001002XXXXXX
0000000000002929DERMOFIL CR ORDEE X490                                      NS000000705919020700000779029900299300001002XXXXXX
0000000000002932EFFICIENT TAL X200                                          NS000000676019020700000779129302776000001002XXXXXX
0000000000002960PREAL COL X500 MARINA                                       NS000000484419020700000779037100528700001002XXXXXX
0000000000002981JABONERA C/BISAGRA                                          NS000000100319020700000779492250636000001003XXXXXX
0000000000003017FRAG.SALV DALI X30 LAGUNA FEM                               NS000002885419020700000333143087501000001002XXXXXX
0000000000003031CAPILATIS SAVIA S/ENJUAGU X410                              NS000000750019020700000779264000244700001002XXXXXX
0000000000003032CAPILATIS AC X500 SELECTIVO                                 NS000001022819020700000779264000362800001002XXXXXX
0000000000003033CAPILATIS CH X500 SELECTIVO                                 NS000001022819020700000779264000361100001002XXXXXX
0000000000003034CAPILATIS TRAT X200 DAADO                                   NS000000661119020700000779264000239300001002XXXXXX
0000000000003038FRAG.PACO RABAN EDT X100 VAP                                NS000011574419020700000334966802134500001002XXXXXX
0000000000003047FERRINI SAPOLAN X200 ZANAHORIA                              NS000000903919020700000779029900022700001002XXXXXX
0000000000003075INECTO BASE PERM X150 FUERTE                                NS000000499019020700000779474000828200001002XXXXXX
0000000000003434RAID ESPIRALES X12 5EN1                                     NS000000319019020700000779052001044500012002XXXXXX
0000000000003613EMAL DIAMA EMUL DEP A/V X200                                NS000000518219020700000779158000107700001002XXXXXX
0000000000003641SYRA APOS QUIR EST 8X7X20                                   NS000001067519020700000779200901160800008003XXXXXX
0000000000003642SYRA APOS POSP ESTU 6X10X20                                 NS000001067519020700000779200901162200006003XXXXXX
0000000000003666SYRA PARCHES  COMUN                                         NS000000158419020700000779200901098400001003XXXXXX
0000000000003667SYRA PARCHES ELECTRICO                                      NS000000240719020700000779200901097700001003XXXXXX
0000000000003688BEBEFANTITOS MAMADERA 250ML                                 NS000000625819020700000779306626001500001003XXXXXX
0000000000003689ATUCHA MAMAD POLIC DECORADA                                 NS000000543919020700000779306660000200001003XXXXXX
0000000000003691ATUCHA MAMAD POLIC OPACA                                    NS000000238019020700000779306626006000001003XXXXXX
0000000000003695ATUCHA BOLSA HIELO N15                                      NS000000543619020700000779306611015000001003XXXXXX
0000000000003696ATUCHA BOLSA HIELO N18                                      NS000000573219020700000779306611018100001003XXXXXX
0000000000003697ATUCHA BOLSA HIELO N20                                      NS000000604619020700000779306611020400001003XXXXXX
0000000000003698ATUCHA BOLSA HIELO N23                                      NS000000691119020700000779306611023500001003XXXXXX
0000000000003699ATUCHA BOLSA HIELO N25                                      NS000000753719020700000779306600024600001003XXXXXX
0000000000003700ATUCHA BOLSA HIELO N28                                      NS000000851519020700000779306611028000001003XXXXXX
0000000000003711ATUCHA BOLSA A/CAL T/ROSCA PLU                              NS000001603919020700000779306624202800001003XXXXXX
0000000000003712ATUCHA ASPIRADOR NASAL PLASTIC                              NS000000320319020700000779306628002000001003XXXXXX
0000000000003714ATUCHA PEINE ANTIPEDI M/PLASTI                              NS000000733719020700000779306670000900001002XXXXXX
0000000000003716ATUCHA PISTERO PLASTICO                                     NS000000116519020700000779306638002700001003XXXXXX
0000000000003717ATUCHA ORINAL PLASTICO HOMBRE                               NS000000386919020700000779306638004100001003XXXXXX
0000000000003718ATUCHA ORINAL PLASTICO MUJER                                NS000000460019020700000779306638006500001003XXXXXX
0000000000003719ATUCHA IRRIGADOR PLAST 2LTS                                 NS000000531219020700000779306638010200001003XXXXXX
0000000000003720ATUCHA CHATA PLASTICA                                       NS000000971919020700000779306638012600001003XXXXXX
0000000000003721ATUCHA COPITA LAVA OJOS                                     NS000000053919020700000000000001687700001003XXXXXX
0000000000003722ATUCHA PERA GOMA N0                                         NS000000358619020700000779306612000500001003XXXXXX
0000000000003724ATUCHA PERA GOMA N2                                         NS000000433119020700000779306612002900001003XXXXXX
0000000000003726ATUCHA PERA GOMA N4                                         NS000000506919020700000779306612004300001003XXXXXX
0000000000003728ATUCHA PERA GOMA N6                                         NS000000613519020700000779306612006700001003XXXXXX
0000000000003730ATUCHA PERA GOMA N8                                         NS000000762919020700000779306612008100001003XXXXXX
0000000000003732ATUCHA PERA GOMA N10                                        NS000000905119020700000779306612010400001003XXXXXX
0000000000003733ATUCHA PERA GOMA N12                                        NS000000956919020700000779306612012800001003XXXXXX
0000000000003734ATUCHA PERA GOMA N14                                        NS000001087319020700000779306612014200001003XXXXXX
0000000000003735ATUCHA PERA GOMA N16                                        NS000001350119020700000779306612016600001003XXXXXX
0000000000003736ATUCHA PERA GOMA N18                                        NS000001442919020700000779306612018000001003XXXXXX
0000000000003737ATUCHA SACALECHE PLASTICO                                   NS000000413519020700000779306618002300001003XXXXXX
0000000000003738ATUCHA TETINA SILICONA CAJA X1                              NS000000215719020700000779306622008800001003XXXXXX
0000000000003739ATUCHA TETINA UNIVERSAL SOBRE                               NS000000051719020700000779306622004000001003XXXXXX
0000000000003851COLIBRI ANIL FRIO X20 NEGRO A                               NS000000136919020700000779581503001600001003XXXXXX
0000000000003852COLIBRI ANIL FRIO X20 MARRON                                NS000000136919020700000779581505008300001003XXXXXX
0000000000003853COLIBRI ANIL FRIO X20 ROJO FU                               NS000000136919020700000779581505022900001003XXXXXX
0000000000003854COLIBRI ANIL FRIO X20 AZUL                                  NS000000136919020700000779581505017500001003XXXXXX
0000000000003855COLIBRI ANIL FRIO X20 VERDE C                               NS000000136919020700000779581505026700001003XXXXXX
0000000000003856COLIBRI ANIL FRIO X20 VERDE O                               NS000000136919020700000779581505028100001003XXXXXX
0000000000003857COLIBRI ANIL FRIO X20 GRIS OS                               NS000000136919020700000779581505010600001003XXXXXX
0000000000003858COLIBRI ANIL FRIO X20 BORDEAU                               NS000000136919020700000779581505031100001003XXXXXX
0000000000003859COLIBRI ANIL FRIO X20 CELESTE                               NS000000136919020700000779581505012000001003XXXXXX
0000000000003860COLIBRI ANIL FRIO X20 AZUL EL                               NS000000136919020700000779581505016800001003XXXXXX
0000000000003972ISSUE POLVO DEC X70                                         NS000000774019020700000779300800193500001002XXXXXX
0000000000004140ESPONJA 150 RECTANGULAR LUZON                               NS000000066019020700000779623500150100001003XXXXXX
0000000000004141VENADO 105 PEINE BOLSILLO                                   NS000000275019020700000000000002243100001003XXXXXX
0000000000004441ARTEZ W CR BASE O.M.BEIGE B                                 NS000000787219020700000779805294052000001002XXXXXX
0000000000004443ARTEZ W CR BASE O.M.HIEMAL                                  NS000000787219020700000779805294050600001002XXXXXX
0000000000004473ISSUE 6.1+OXI+KERATINA                                      NS000000569819020700000779300800562900001002XXXXXX
0000000000004476ISSUE 7.1+OXI+KERATINA                                      NS000000569819020700000779300800564300001002XXXXXX
0000000000004479ISSUE 8.3+OXI+KERATINA                                      NS000000569819020700000779300800568100001002XXXXXX
0000000000004485ISSUE 4.65+OXI+KERATINA                                     NS000000569819020700000779300800574200001002XXXXXX
0000000000004489ISSUE 5.1+OXI+KERATINA                                      NS000000569819020700000779300800559900001002XXXXXX
0000000000004490ISSUE 9.03+OXI+KERATINA                                     NS000000569819020700000779300800624400001002XXXXXX
0000000000004499PRIME PRES X3 ESPERMI BLANCO                                NS000000234719020700000779151920007600003002XXXXXX
0000000000004592COLIBRI ANIL FRIO X20 LILA                                  NS000000136919020700000779581505030400001003XXXXXX
0000000000004593COLIBRI ANIL FRIO X20 VIOLETA                               NS000000136919020700000779581505032800001003XXXXXX
0000000000004594COLIBRI ANIL FRIO X20 AMAR CA                               NS000000136919020700000779581505001400001003XXXXXX
0000000000004595COLIBRI ANIL FRIO X20 AMAR OR                               NS000000136919020700000779581500502100001003XXXXXX
0000000000004596COLIBRI ANIL FRIO X20 NARANJA                               NS000000136919020700000779581505003800001003XXXXXX
0000000000004597COLIBRI ANIL FRIO X20 BEIGE                                 NS000000136919020700000779581500504500001003XXXXXX
0000000000004598COLIBRI ANIL FRIO X20 VICUNA                                NS000000136919020700000779581505005200001003XXXXXX
0000000000004599COLIBRI ANIL FRIO X20 PARDO CL                              NS000000136919020700000779581505006900001003XXXXXX
0000000000004600COLIBRI ANIL FRIO X20 PARDO RO                              NS000000136919020700000779581505007600001003XXXXXX
0000000000004601COLIBRI ANIL FRIO X20 GRIS PE                               NS000000136919020700000779581505009000001003XXXXXX
0000000000004602COLIBRI ANIL FRIO X20 AZUL CI                               NS000000136919020700000779581505013700001003XXXXXX
0000000000004603COLIBRI ANIL FRIO X20 TURQUEZA                              NS000000136919020700000779581505014400001003XXXXXX
0000000000004604COLIBRI ANIL FRIO X20 AZUL BR                               NS000000136919020700000779581505015100001003XXXXXX
0000000000004605COLIBRI ANIL FRIO X20 ROSA                                  NS000000136919020700000779581505018200001003XXXXXX
0000000000004606COLIBRI ANIL FRIO X20 ROSA                                  NS000000136919020700000779581505019900001003XXXXXX
0000000000004607COLIBRI ANIL FRIO X20 SOLFERI                               NS000000136919020700000779581505020500001003XXXXXX
0000000000004608COLIBRI ANIL FRIO X20 PUNZO                                 NS000000136919020700000779581505021200001003XXXXXX
0000000000004609COLIBRI ANIL FRIO X20 RUBI                                  NS000000136919020700000779581505023600001003XXXXXX
0000000000004610COLIBRI ANIL FRIO X20 GRANATE                               NS000000136919020700000779581505024300001003XXXXXX
0000000000004611COLIBRI ANIL FRIO X20 VERDE N                               NS000000136919020700000779581505025000001003XXXXXX
0000000000004612COLIBRI ANIL FRIO X20 PURPURA                               NS000000136919020700000779581505029800001003XXXXXX
0000000000004677COREGA TABS X 30                                            NS000000722819020700000779464017142000030003XXXXXX
0000000000004868CARILINA PA PACK 6X10 E/SEDA                                NS000000259619020700000779025005472600006002XXXXXX
0000000000004870SUSSEX R/COCINA X3 MAXI300                                  NS000000739019020700000779025005698000003003XXXXXX
0000000000004912WATTEAU COL BRISAS X110                                     NS000000546419020700000779013371105000001002XXXXXX
0000000000004913WATTEAU COL BRISAS X220                                     NS000000825219020700000779013372205600001002XXXXXX
0000000000004981BEBEFANTITO PEZONERA PLASTICA                               NS000000319919020700000779306620004200001003XXXXXX
0000000000005016FRAG.OPIUM EDT X50 MEN                                      NS000012395419020700000336544002556100001002XXXXXX
0000000000005193BABELITO MAM X250 TOMASOLITO T                              NS000001098419020700000779397013583600001003XXXXXX
0000000000005242ATUCHA PEINE ANTIPEDI M/ACERO                               NS000001529419020700000779306617001700001003XXXXXX
0000000000005250ESPONJA 500 RECT/CH LUZON                                   NS000000052419020700000779623500500400001003XXXXXX
0000000000005279ISSUE KIT CRAZY AZUL                                        NS000000731019020700000779300800652700001002XXXXXX
0000000000005299SYRA APOS QUIR EST 4X13X20                                  NS000001067519020700000779200901161500004003XXXXXX
0000000000005338COMODIN RECTO X10 EX.GR.C/GEL                               NS000000919119020700000779122915285600010002XXXXXX
0000000000005344JOHNS ACEITE X100 ALOE VERA                                 NS000000469119020700000779001095980300001002XXXXXX
0000000000005345SAPOLAN DUBARRY COLOR X280                                  NS000000979019020700000000007790866700001002XXXXXX
0000000000005385PRIME PRES X3 SUPER FINOS GRIS                              NS000000234719020700000779151920004500003002XXXXXX
0000000000005386PRIME PRES X3 TEXTURADOS ROJO                               NS000000234719020700000779151920006900003002XXXXXX
0000000000005387PRIME PRES X3 SKYN SENSACION P                              NS000000234719020700000779151970209900003003XXXXXX
0000000000005421ARTEZ W EMUL P/ARRUGAS X145                                 NS000001131519020700000779805294020900001002XXXXXX
0000000000005428ARTEZ W LABIAL ROSA INTENSO                                 NS000000618519020700000779805294747500001002XXXXXX
0000000000005450BODY C CABESTRILLO UNIVERSAL                                NS000002428919020700000779808244007600001003XXXXXX
0000000000005700BABELITO CHU/ANA TODO SIL T1 C                              NS000000763319020700000779397031891800001003XXXXXX
0000000000005711COMODIN RECTO X20 GRANDE C/GEL                              NS000001718719020700000779122900008900020002XXXXXX
0000000000005785CHESTER ICE EDT X60                                         NS000001226819020700000779160006014500001002XXXXXX
0000000000005786CHESTER ICE EDT X60 C/VAP                                   NS000001581919020700000779160006025100001002XXXXXX
0000000000005806LINA TOA X16 NORMAL C/A NVA                                 NS000000224219020700000779362000338600016002XXXXXX
0000000000006026PET ENFANT PERF ROPA/AMB X240                               NS000000966519020700000779348707520500001002XXXXXX
0000000000006028COLBERT US EDT X60                                          NS000001581919020700000779160008701200001002XXXXXX
0000000000006033COLBERT US DES AE X150                                      NS000000774819020700000779160008712800001002XXXXXX
0000000000006034COLBERT US DES AE X250                                      NS000000848619020700000779160008723400001002XXXXXX
0000000000006111KOLES KIT 9.1 C/REACT RUB CEN                               NS000002082119020700000750107826601300001002XXXXXX
0000000000006154ALGODON ESTRELLA X400 SUPER                                 NS000001045519020700000779006400172500001002XXXXXX
0000000000006286CAPILATIS CH X420 EQUILIB/PURI                              NS000001045519020700000779264000274400001002XXXXXX
0000000000006287CAPILATIS LECHE X260 VIGO SECO                              NS000000705619020700000779264000057300001002XXXXXX
0000000000006310AXE ANT X90 DARK TEMPTATION                                 NS000000704019020700000779129302588900001002XXXXXX
0000000000006314PRIME PRES X12 EXTRA LUBRICADO                              NS000000867819020700000779151970069900012002XXXXXX
0000000000006315PRIME PRES X12 SUPER FINOS                                  NS000000867819020700000779151900007200012002XXXXXX
0000000000006316PRIME PRES X12 TEXTURADO                                    NS000000867819020700000779151900009600012002XXXXXX
0000000000006317PRIME PRES X12 ESPERMICIDA                                  NS000000867819020700000779151900010200012002XXXXXX
0000000000006338ARTEZ W CR ESENCIAL X50                                     NS000000999719020700000779805294029200001002XXXXXX
0000000000006339ARTEZ W CR GERMINAL X50                                     NS000001112819020700000779805294035300001002XXXXXX
0000000000006340ARTEZ W CR BASE O.M.NOGAL                                   NS000000787219020700000779805294049000001002XXXXXX
0000000000006376BODY C COLLAR FILADEL CH 1086                               NS000002447119020700000779808244235300001003XXXXXX
0000000000006377BODY C COLLA RFILADEL MED 1086                              NS000002447119020700000779808244236000001003XXXXXX
0000000000006378BODY C COLLAR FILADEL GDE 1086                              NS000002447119020700000779808244237700001003XXXXXX
0000000000006649PET ENFANT EST 10 CH+JAB+TALC                               NS000001622519020700000779348705457600001002XXXXXX
0000000000006652FRAG.ORGANZA EDP X50 VAP FEM                                NS000013018619020700000327487821235400001002XXXXXX
0000000000006666BONM 6.65 CAOBA VIOL.C                                      NS000000178519020700000779144200230300001002XXXXXX
0000000000006668NIVEA CR SOFT X200                                          NS000001257319020700000400580851559200001002XXXXXX
0000000000006670NIVEA CR SOFT X100                                          NS000000810019020700000400580889059000001002XXXXXX
0000000000006686FRAG.EDEN EDP X30 SP FEM                                    NS000008309719020700000336037304886100001002XXXXXX
0000000000006713FRAG.FAN DI FENDI BLOSSOM X30                               NS000005941519020700000327487226952100001002XXXXXX
0000000000006727HERBAL E CH X300 PROLONGALO                                 NS000000425319020700000750629530232200001002XXXXXX
0000000000006728HERBAL E CH X300 HIDRADISIACO                               NS000000651519020700000750629530229200001002XXXXXX
0000000000006732HERBAL E AC X300 ALBOROTALOS                                NS000000651519020700000750619515539400001002XXXXXX
0000000000006734HERBAL E AC X300 HIDRADISIACO                               NS000000651519020700000750106590452200001002XXXXXX
0000000000006737ESPONJA 675 OVALADA LUZON                                   NS000000088019020700000779623500675900001003XXXXXX
0000000000006752BIFERDIL A.X12 P/CAIDA C/ALOE                               NS000002771419020700000779100100652000012002XXXXXX
0000000000006755BIFERDIL CH X280 P+T                                        NS000000962319020700000779100100246100001002XXXXXX
0000000000006756BIFERDIL REPARADOR PUNTAS X30                               NS000000639119020700000779100100618600001002XXXXXX
0000000000006758VENADO 180 PEINE TOILETTE                                   NS000000689419020700000000000002243500001003XXXXXX
0000000000006759PET AMOUR COL X120                                          NS000001399919020700000779348701464800001002XXXXXX
0000000000006760PET ENFANT ACEITE X240                                      NS000000814219020700000779348707427700001002XXXXXX
0000000000006763CAPILATIS AC X420 DAADOS                                    NS000001022819020700000779264000238600001002XXXXXX
0000000000006863CLIPS CORTOS RUBIO C.0005                                   NS000000067319020700000000000001662300001002XXXXXX
0000000000006864PICO ALUMINIO CORTO X100                                    NS000000972719020700000779809001003200100003XXXXXX
0000000000006865PICO ALUMINIO LARGO X100                                    NS000001089019020700000779809001001800100003XXXXXX
0000000000006899JESSAMY ESCOFINA METAL SUP E15                              NS000000130719020700000779492250226300001003XXXXXX
0000000000006902JESSAMY CEP UAS FLUO                                        NS000000179219020700000779492254843800001002XXXXXX
0000000000006903JESSAMY GORRO DUCHA CRISTAL                                 NS000000217819020700000779492253376200001003XXXXXX
0000000000006904JESSAMY GORRO DUCHA 522 LISO                                NS000000184819020700000779232700525900001002XXXXXX
0000000000006906JESSAMY PEINE AFRO PERM.C/MANG                              NS000000064719020700000779492250193800001002XXXXXX
0000000000006923JESSAMY ALICATE GDE C1778 X12                               NS000001663219020700000779492250148800001003XXXXXX
0000000000006925JESSAMY PINCEL TINT PROF.1158                               NS000000068019020700000779492250086300001002XXXXXX
0000000000006936PINZA DEP HUECA XZN                                         NS000000052319020700000779809001005600001003XXXXXX
0000000000006945JESSAMY CEP ALAMB/CH BRUSH 109                              NS000000468619020700000779492220109800001002XXXXXX
0000000000006946JESSAMY CEP NEUM CHICO 158                                  NS000000330019020700000779492200174200001003XXXXXX
0000000000006947JESSAMY PEINE AFRO RECT.P/PERM                              NS000000064719020700000779492250194500001003XXXXXX
0000000000006957OFF ACTIVE CR X200                                          NS000000705319020700000779052001217300001002XXXXXX
0000000000007164FRAG.212 EDT X60 FEM                                        NS000013132519020700000841106125170600001002XXXXXX
0000000000007165FRAG.212 EDT X30 FEM                                        NS000008977519020700000841106125180500001002XXXXXX
0000000000007183FRAG.HALLOWEEN EDT X30 VAP FEM                              NS000003534519020700000843175434061600001002XXXXXX
0000000000007184FRAG.HALLOWEEN EDT X50 FEM                                  NS000007063319020700000843175434101900001002XXXXXX
0000000000007196JESSAMY CEP RED MADE/J191 BRUS                              NS000000567619020700000779492201191800001002XXXXXX
0000000000007204VENADO 170 PEINE CABALLERO                                  NS000000371519020700000000000002243400001003XXXXXX
0000000000007209FRAG.QUARTZ EDT X30 SP MEN                                  NS000003808619020700000333184587287100001002XXXXXX
0000000000007258FRAG.AMARIGE EDT X30 SP FEM                                 NS000008666419020700000327487812250900001002XXXXXX
0000000000007259ESPONJA 525 MASAJ/OVALADA LUZO                              NS000000157219020700000779623500525700001003XXXXXX
0000000000007270BIFERDIL REMOVEDOR LIENDRES                                 NS000001396119020700000779100100086300001002XXXXXX
0000000000007312VENADO 186 PEINE RULERO                                     NS000000365819020700000000000002243600001003XXXXXX
0000000000007327FRAG.AQUA D GIO EDT X50 VAP H                               NS000011992419020700000336037205886100001002XXXXXX
0000000000007342JOHNS JAB X80 REGULAR PIEL DEL                              NS000000226719020700000789101061742400001002XXXXXX
0000000000007383ISSUE POLVO DEC X20                                         NS000000354819020700000779300800192800001002XXXXXX
0000000000007391COMODIN APOS.REFUERZPA¥ M X10                               NS000000387919020700000779122900093500010003XXXXXX
0000000000007500VENADO 188 PEINE DAMA C/MA                                  NS000000561919020700000000000002243800001003XXXXXX
0000000000007675MUEQUERA NEOP T3 263 PROCER                                 NS000000630019020700000000000002032500001003XXXXXX
0000000000007679PROCER CODERA NEOP TERM 1 265                               NS000001601319020700000000000001665600001003XXXXXX
0000000000007681PROCER RODI NEOP C/ABR 2 268                                NS000004608619020700000779802852268200001003XXXXXX
0000000000007684PROCER FAJA LUMB AJ C/AB 1 269                              NS000003144819020700000000000001766300001003XXXXXX
0000000000007686PROCER FAJA LUMB AJ C/AB 3 269                              NS000003144819020700000779802852269900001003XXXXXX
0000000000007687PROCER MUEQ NEOP ANCHA 1 303                                NS000001149819020700000000000002032000001003XXXXXX
0000000000007688PROCER MUEQ NEOP ANCHA 2 303                                NS000001149819020700000000000002032100001003XXXXXX
0000000000007689PROCER MUEQ NEOP ANCHA 3 303                                NS000001149819020700000000000002032200001003XXXXXX
0000000000007695PROCER RODI ELAS 2 201                                      NS000000452019020700000000000002176800001003XXXXXX
0000000000007696PROCER RODI ELAS 3 201                                      NS000000452019020700000000000002176900001003XXXXXX
0000000000007697PROCER RODI ELAS 4 201                                      NS000000452019020700000000000002177000001003XXXXXX
0000000000007698PROCER RODI ELAS 5 201                                      NS000000452019020700000000000002177100001003XXXXXX
0000000000007700PROCER RODI ELAS 7 201                                      NS000000452019020700000000000002177300001003XXXXXX
0000000000007701PROCER RODI ELAS 8 201                                      NS000000452019020700000000000002177400001003XXXXXX
0000000000007704PROCER TOBILLERA ELAS 6 205                                 NS000000369519020700000000000002226400001003XXXXXX
0000000000007705PROCER TOBILLERA ELAS 5 205                                 NS000000369519020700000000000002226300001003XXXXXX
0000000000007706PROCER TOBILLERA ELAS 7 205                                 NS000000369519020700000000000002226500001003XXXXXX
0000000000007707PROCER CODERA ELAS 1 206                                    NS000000435619020700000000000001664500001003XXXXXX
0000000000007708PROCER CODERA ELAS 2 206                                    NS000000435619020700000000000001664600001003XXXXXX
0000000000007709PROCER CODERA ELAS 3 206                                    NS000000435619020700000000000001664700001003XXXXXX
0000000000007710PROCER FAJA ELAS 1 BLANCA 208                               NS000001260019020700000000000001763800001003XXXXXX
0000000000007711PROCER FAJA ELAS 2 BLANCA 208                               NS000001260019020700000000000001763900001003XXXXXX
0000000000007712PROCER FAJA ELAS 5 BLANCA 208                               NS000001422819020700000000000001764200001003XXXXXX
0000000000007713PROCER FAJA ELAS 6 BLANCA 208                               NS000001422819020700000000000001764300001003XXXXXX
0000000000007714PROCER FAJA ELAS 7 BLANCA 208                               NS000001716619020700000000000001764400001003XXXXXX
0000000000007715PROCER FAJA ELAS 8 BLANCA 208                               NS000001716619020700000000000001764500001003XXXXXX
0000000000007716PROCER FAJA ELAS 4 BLANCA 208                               NS000001422819020700000000000001764100001003XXXXXX
0000000000007717PROCER FAJA ELAS 9 BLANCA 208                               NS000001716619020700000000000001764600001003XXXXXX
0000000000007719PROCER MUSLERA ELAS 2 210                                   NS000000509319020700000000000002028600001003XXXXXX
0000000000007720PROCER MUSLERA ELAS 3 210                                   NS000000509319020700000000000002028700001003XXXXXX
0000000000007721PROCER MUEQ ELAS 1 222                                      NS000000385919020700000000000002031000001003XXXXXX
0000000000007722PROCER MUEQ ELAS 2 222                                      NS000000385919020700000000000002031100001003XXXXXX
0000000000007724PROCER MUEQ ELAS 4 222                                      NS000000385919020700000000000002031300001003XXXXXX
0000000000007725PROCER ANATOMICO ELAS 1 233 BL                              NS000001317519020700000000000001556000001003XXXXXX
0000000000007726PROCER ANATOMICO ELAS 2 233 BL                              NS000001317519020700000000000001556100001003XXXXXX
0000000000007727PROCER ANATOMICO ELAS 4 233 BL                              NS000001317519020700000000000001556300001003XXXXXX
0000000000007729PROCER ANATOMICO ELAS 6 233 BL                              NS000001893819020700000000000001556500001003XXXXXX
0000000000007730PROCER ANATOMICO ELAS 7 233 BL                              NS000002287419020700000000000001556600001003XXXXXX
0000000000007731PROCER ANATOMICO ELAS 8 233 BL                              NS000002287419020700000000000001556700001003XXXXXX
0000000000007732PROCER ANATOMICO ELAS 9 233 BL                              NS000002287419020700000000000001556800001003XXXXXX
0000000000007738PROCER FAJA ELAS AJ 28CM 3 238                              NS000001730819020700000000000001763700001003XXXXXX
0000000000007740PROCER GEMELERA ELAS 2 239                                  NS000000826719020700000000000001833600001003XXXXXX
0000000000007741PROCER GEMELERA ELAS 3 239                                  NS000000826719020700000000000001833700001003XXXXXX
0000000000007742PROCER VENDA ELASTICA 5CM 245                               NS000000281119020700000779802852245300001003XXXXXX
0000000000007743PROCER VENDA ELASTICA 7CM 246                               NS000000354119020700000779802852246000001003XXXXXX
0000000000007744PROCER VENDA ELASTICA 9CM 247                               NS000000399319020700000779802852247700001003XXXXXX
0000000000007745PROCER VENDA ELASTICA 11CM 248                              NS000000461019020700000779802852248400001003XXXXXX
0000000000007751PROCER TOBILLERA ELAS CO S 405                              NS000000529219020700000000000002226000001003XXXXXX
0000000000007752PROCER TOBILLERA ELAS CO M 405                              NS000000529219020700000779802852146300001003XXXXXX
0000000000007753TOBILLERA ELAS COL L 405 PR(P                               NS000000369519020700000779802852147000001003XXXXXX
0000000000007754PROCER MUSLERA ELAS COL S 410                               NS000000837919020700000000000002028400001003XXXXXX
0000000000007756PROCER MUSLERA ELAS COL L 410                               NS000000837919020700000000000002028200001003XXXXXX
0000000000007845PROCER FAJA ELAS 3 BLANCA 208                               NS000001260019020700000000000001764000001003XXXXXX
0000000000007862KEVIN EDT X100 VAP.                                         NS000002157319020700000779160003712300001002XXXXXX
0000000000007877PROCER CALZA NEOPRENE 1 315                                 NS000005460219020700000000000001633200001003XXXXXX
0000000000007878PROCER CALZA NEOPRENE 2 315                                 NS000005460219020700000000000001633300001003XXXXXX
0000000000007879PROCER CALZA NEOPRENE 3 315                                 NS000005460219020700000000000001633400001003XXXXXX
0000000000007899VENADO 190 PEINE TOILETTE                                   NS000000468419020700000000000002243900001003XXXXXX
0000000000007960COLIBRI DECOLORANTE X50                                     NS000000203219020700000779581523001000001003XXXXXX
0000000000007971FRAG.PRET A PORTER EDT X50 FEM                              NS000001616719020700000841316101702200001002XXXXXX
0000000000007976DERMOFIL CR X500 HUME ALOE VER                              NS000000716919020700000779029900219100001002XXXXXX
0000000000007977DERMOFIL CR X500 SUAV PALTA                                 NS000000716919020700000779029900220700001002XXXXXX
0000000000007978DERMOFIL CR X500 NUTR COLAGENO                              NS000000716919020700000779029900218400001002XXXXXX
0000000000007988DOREE QUITAESM X65 HUMECT PANT                              NS000000168119020700000779405000500100001002XXXXXX
0000000000007989DOREE QUITAESM X65 PROTEC LANO                              NS000000168119020700000779405000507000001002XXXXXX
0000000000007990DOREE QUITAESM X65 FORTAL VIT/                              NS000000168119020700000779405000503200001002XXXXXX
0000000000008039PONDS TOA DESMAQ P/NORMAL A SE                              NS000000844019020700000030521011933800001002XXXXXX
0000000000008040CAPILATIS CH X510 MANZANILLA                                NS000001022819020700000779264000103700001002XXXXXX
0000000000008041CAPILATIS AC X500 MANZANILLA                                NS000001022819020700000779264000107500001002XXXXXX
0000000000008052PACO COL X60 FUTBOL                                         NS000001478619020700000779160062013400001002XXXXXX
0000000000008053PACO DEO AE X150 FUTBOL                                     NS000000656719020700000779160062024000001002XXXXXX
0000000000008056BIUTY CR X260 P/PIERNAS                                     NS000000545519020700000779604560204200001002XXXXXX
0000000000008062PET ENFANT OLEO CALAREO X250                                NS000000579919020700000779348707499400001002XXXXXX
0000000000008063PET ENFANT OLEO CALAREO X500                                NS000000814219020700000779348707504500001002XXXXXX
0000000000008071DOREE GEL X168 POMO FIJADOR                                 NS000000293819020700000779405000825500001002XXXXXX
0000000000008116BIFERDIL CH X200 JOJOBA                                     NS000000657919020700000779100100165500001002XXXXXX
0000000000008119BIFERDIL GLYCOCERA.+MULTIV X12                              NS000002105119020700000779100100038200012002XXXXXX
0000000000008121BIFERDIL AC X400 GINKO BILOBOA                              NS000001189819020700000779100100407600001002XXXXXX
0000000000008123BIFERDIL CH X200 BIFERMIX                                   NS000000787319020700000779100100032000001002XXXXXX
0000000000008124BIFERDIL AC X200 BIFERMIX                                   NS000000787419020700000779100100031300001002XXXXXX
0000000000008125BIFERDIL NUTRI CH X200 VIT E                                NS000000734819020700000779100100004700001002XXXXXX
0000000000008126BIFERDIL NUTRI BALS X200 VIT E                              NS000000734819020700000779100100002300001002XXXXXX
0000000000008128BIFERDIL CH X200 PROVIT B5                                  NS000000790819020700000779100100009200001002XXXXXX
0000000000008130BIFERDIL RECUP BALSAMI X200 B5                              NS000000790819020700000779100100011500001002XXXXXX
0000000000008133BIFERDIL CH X200 COLAGENO 1019                              NS000000629819020700000779100100106800001002XXXXXX
0000000000008134BIFERDIL CH X200 QUERATINA 104                              NS000000629819020700000779100100104400001002XXXXXX
0000000000008135BIFERDIL CH X200 SUPER ESPECIA                              NS000000629819020700000779100100125900001002XXXXXX
0000000000008136BIFERDIL CH X200 MANZANILLA C/                              NS000000657919020700000779100100121100001002XXXXXX
0000000000008137BIFERDIL AC X200 MANZANILLA                                 NS000000657919020700000779100100123500001002XXXXXX
0000000000008138BIFERDIL CH X200 NEUTRO ALGAS                               NS000000644019020700000779100100117400001002XXXXXX
0000000000008139BIFERDIL AC X200 ALGAS                                      NS000000644019020700000779100100119800001002XXXXXX
0000000000008145BIFERDIL AC X200 VITAMINADO                                 NS000000545819020700000779100100028300001002XXXXXX
0000000000008148BIFERDIL SPRAY X290 BRILLO SIL                              NS000001210719020700000779100100098600001002XXXXXX
0000000000008168NIVEA WOM ANT AER X150 FRESH N                              NS000000707919020700000779196901601200001002XXXXXX
0000000000008169NIVEA MEN ANT BOL DRY IMPAC                                 NS000000560319020700000400580825755300001002XXXXXX
0000000000008170NIVEA WOM ANT BOL DRY COMFORT                               NS000000560219020700000400580825758400001002XXXXXX
0000000000008235OFF AE X165 EXT.DURAC                                       NS000001478019020700000779052000950000001002XXXXXX
0000000000008267PROCER TOBILLERA ELAS 8 205                                 NS000000369519020700000000000002226600001003XXXXXX
0000000000008270JESSAMY CEP NEU M//G GDE C159                               NS000000415819020700000779492200159900001002XXXXXX
0000000000008291FRAG.CABOTINE EDT X30 FEM                                   NS000004600019020700000764011149432400001002XXXXXX
0000000000008324PROCER ANATOMICO ELAS 3 233 BL                              NS000001317519020700000000000001556200001003XXXXXX
0000000000008340CAPILATIS CH X420 ORTIGA SECO                               NS000001045519020700000779264000027600001002XXXXXX
0000000000008341CAPILATIS CH X420 ORTIGA CASPA                              NS000001045519020700000779264000028300001002XXXXXX
0000000000008343EMAL DIAMA CE NAT X150 CACEROL                              NS000000629219020700000779158000302600001002XXXXXX
0000000000008375DANIELLE COL X90                                            NS000001013719020700000779160004405300001002XXXXXX
0000000000008376DANIELLE JAB X75+JABONERA                                   NS000000819619020700000779160001246500001002XXXXXX
0000000000008377DANIELLE CH X200                                            NS000000819619020700000779160001268700001002XXXXXX
0000000000008380DANIELLE LATA COL X95+CH 123/7                              NS000002265819020700000779160004416900001002XXXXXX
0000000000008381DANIELLE JOLIE EDT X80+JAB X75                              NS000002265819020700000779160004514200001002XXXXXX
0000000000008399SAPOLAN DUBARRY X200                                        NS000000869019020700000000007795472500001002XXXXXX
0000000000008428NIVEA BALSAM X100 AFTER SHAVE                               NS000001613819020700000841230081300600001002XXXXXX
0000000000008435JESSAMY CEP TERMICO NRO 976                                 NS000000737819020700000779492250183900001003XXXXXX
0000000000008455PIELOLDO POLVO PED X125 BOLSA                               NS000000256119020700000779198117222200001002XXXXXX
0000000000008456PIELOLDO POLVO PED.X125 REFORZ                              NS000000291119020700000779198149537600001002XXXXXX
0000000000008457PIELOLDO POLVO PED.X250                                     NS000000390819020700000779198117223900001002XXXXXX
0000000000008458PIELOLDO POLVO PED.X250 REFORZ                              NS000000436919020700000779198149538300001002XXXXXX
0000000000008495ELVIVE AC X200 COLOR VIVE                                   NS000000699119020700000789858776188800001002XXXXXX
0000000000008626FRAG.DOLCE GABBANA EDT X50 FEM                              NS000014426619020700000073705259803100001002XXXXXX
0000000000008646SYRA APOS QUIR EST 6X10X20                                  NS000001067519020700000779200901159200006003XXXXXX
0000000000008658DOVE ANT BARRA X50                                          NS000000937019020700000000007502751300001002XXXXXX
0000000000008662VENADO 288 PEINE DAMA C/MA                                  NS000000237519020700000000000002244000001003XXXXXX
0000000000008755CURITAS X8 TELA ELASTICA                                    NS000000148019020700000400590017099600008003XXXXXX
0000000000008767SIE LI TOA X16 FIT CON ALAS                                 NS000000608619020700000779001059660200016002XXXXXX
0000000000008826PLAX ENJ X60 LOUMINOUS WHITE                                NS000000194919020700000789102417941300001002XXXXXX
0000000000008859STONE EDP X100 BLACK                                        NS000002489519020700000779804521899500001002XXXXXX
0000000000008860STONE EDP X100 BLUE                                         NS000002489519020700000779804521900800001002XXXXXX
0000000000008861STONE DES AE X168 EXPLORER                                  NS000000508119020700000779804521016600001002XXXXXX
0000000000008864STONE DES AE X168 DANGER                                    NS000000508119020700000779804521014200001002XXXXXX
0000000000008872DOVE ANT BOL X55                                            NS000000627619020700000000007892446800001002XXXXXX
0000000000008878LIMAS ESMERIL X12 N11                                       NS000000096819020700000779492250487800012003XXXXXX
0000000000008895INECTO DEC CAP X30 POLVO                                    NS000000250619020700000779474000403100001002XXXXXX
0000000000008897PET ENFANT EST 15 COL+CH+TAL                                NS000002278519020700000779348705510800001002XXXXXX
0000000000008906ESPONJA 325 OVAL C/VEGETAL LUZ                              NS000000158419020700000779623500325300001003XXXXXX
0000000000008921COLIBRI ANIL FRIO X20 VERDE B                               NS000000136919020700000779581505027400001003XXXXXX
0000000000008961BI-ALCOHOL GEL X250 NEUTRO                                  NS000000318519020700000779013900365400001002XXXXXX
0000000000008967FRAG.AQUA D GIO EDT X100 VAP H                              NS000015096119020700000336037205887800001002XXXXXX
0000000000009013LIMA PLASTICA LAVABLE X1                                    NS000000078619020700000779337010200100001003XXXXXX
0000000000009235PIELOLDO FECULA BEBE X250 BOLS                              NS000000291219020700000779198100000600001002XXXXXX
0000000000009258STONE DES AE X168 MILENIUM                                  NS000000508119020700000779804521043200001002XXXXXX
0000000000009268ESPONJA 250 COMBINADA/RED.LUZO                              NS000000128719020700000779623500250800001003XXXXXX
0000000000009276ACQUA DI COLBERT EDT X100 VAP                               NS000002098419020700000779160002801500001002XXXXXX
0000000000009277ACQUA DI COLBERT EDT X60 VAP                                NS000001736819020700000779160002819000001002XXXXXX
0000000000009284ACQUA DI COLBERT DES AE X150                                NS000000774819020700000779160002858900001002XXXXXX
0000000000009285ACQUA DI COLBERT DES AE X250                                NS000000848619020700000779160002865700001002XXXXXX
0000000000009318ORAL B CEP INTEDENT COMPA CONI                              NS000000634319020700000780000509357000002002XXXXXX
0000000000009319POXIPOL VOLIBARRA X20                                       NS000000404319020700000000007792627200001003XXXXXX
0000000000009397EMAL DIAMA CE VEG X150 CACEROL                              NS000000629219020700000779158000502000001002XXXXXX
0000000000009423FRAG.ANAIS ANAIS EDT X50 FEM                                NS000009556219020700000336037450720600001002XXXXXX
0000000000009424FRAG.POLO BLACK EDT X75 MEN                                 NS000015096119020700000336037703275000001002XXXXXX
0000000000009439FRAG.HALLOWEEN EDT X100 FEM                                 NS000011772219020700000843175434201600001002XXXXXX
0000000000009479CAPILATIS CH X420 ORTIGA GRASO                              NS000001045519020700000779264000026900001002XXXXXX
0000000000009492FERRINI SAPOLAN X200 C/ALOE                                 NS000000670119020700000779029900230600001002XXXXXX
0000000000009581BIFERDIL SPRAY X150 FIJ PANT/S                              NS000000853919020700000779100100141900001002XXXXXX
0000000000009600FRAG.SUNFLOWERS EDT X100 SP                                 NS000007653719020700000008580575774800001002XXXXXX
0000000000009614ORAL B HILO DENT.SATIN TAPE                                 NS000000766319020700000789105102982800001002XXXXXX
0000000000009616ORAL B REP INT CILINDRICO X6                                NS000000783419020700000750108649513900006002XXXXXX
0000000000009634NIVEA FAC TOA DESM REFRES X25                               NS000001012219020700000400580820010800025002XXXXXX
0000000000009643DOREE GEL X168 POMO PRO VIT B5                              NS000000293819020700000779405000828600001002XXXXXX
0000000000009644DOREE GEL X168 POMO EFECTO HUM                              NS000000293819020700000779405000824800001002XXXXXX
0000000000009682CLARIDGE 7.11 RUB.CEN.PROF+OXI                              NS000000413319020700000779474000312600001002XXXXXX
0000000000009683CLARIDGE 8.11 RUB.CL.CEN.PROF+                              NS000000413319020700000779474000313300001002XXXXXX
0000000000009684CLARIDGE 9.11 RU.MUY CL.CE.PR+                              NS000000413319020700000779474000314000001002XXXXXX
0000000000009685CLARIDGE 6.1 RUB.OSC.CENIZA+OX                              NS000000413319020700000779474000336200001002XXXXXX
0000000000009690CLARIDGE 5.6 CAST.CL.CAOBA+OXI                              NS000000413319020700000779474030309700001002XXXXXX
0000000000009691CLARIDGE 6.6 CAOBA CLARO+OXI                                NS000000413319020700000779474030308000001002XXXXXX
0000000000009692CLARIDGE 8.6 RUB.CL.CAOBA+OXI                               NS000000413319020700000779474030310300001002XXXXXX
0000000000009693CLARIDGE 6.45 RUB.OSC.COB.CAO+                              NS000000413319020700000779474000325600001002XXXXXX
0000000000009696CLARIDGE 7.2 RUBIO MALVA+OXI                                NS000000413319020700000779474030317200001002XXXXXX
0000000000009697CLARIDGE 6.3 RUB.OSC.DORADO+OX                              NS000000413319020700000779474030318900001002XXXXXX
0000000000009700CLARIDGE 8.3O RUB.CL.ORO SOL+O                              NS000000413319020700000779474000337900001002XXXXXX
0000000000009701CLARIDGE 8.31 RUB.CL.DOR.CE+OX                              NS000000413319020700000779474000332400001002XXXXXX
0000000000009702CLARIDGE 8.32 RUB.CL.DOR.MALV+                              NS000000413319020700000779474000342300001002XXXXXX
0000000000009703CLARIDGE 9.03 RUB.ORO MUY CL+O                              NS000000413319020700000779474000338600001002XXXXXX
0000000000009704CLARIDGE 9.13 RU.MUY CL.CE.DOR                              NS000000413319020700000779474000333100001002XXXXXX
0000000000009705CLARIDGE 10.13 RUB.CL.CE.DOR+O                              NS000000413319020700000779474000339300001002XXXXXX
0000000000009706CLARIDGE 5.52 CAS.CL.CAO.NAC+O                              NS000000413319020700000779474000340900001002XXXXXX
0000000000009707CLARIDGE 6.52 ROJO BRI.NACA+OX                              NS000000413319020700000779474000341600001002XXXXXX
0000000000009709CLARIDGE 1A NEGRO AZULADO+OXI                               NS000000413319020700000779474000301000001002XXXXXX
0000000000009711CLARIDGE 6.73 MARRON CHOCOL+OX                              NS000000413319020700000779474000334800001002XXXXXX
0000000000009712CLARIDGE 5.20 CAST.CLA.VIOL+OX                              NS000000413319020700000779474000344700001002XXXXXX
0000000000009713CLARIDGE 6.66 ROJO GRANATE+OXI                              NS000000413319020700000779474000328700001002XXXXXX
0000000000009714CLARIDGE 7.45 ROJO INTENSO+OXI                              NS000000413319020700000779474000326300001002XXXXXX
0000000000009716CAPILATIS AC X400 AVENA                                     NS000001022819020700000779264000615500001002XXXXXX
0000000000009742CARILINA PA CUBO X60 PREMIUM                                NS000000349219020700000780650016810200001002XXXXXX
0000000000009751TRIM LIMA LAVABLE X2 CB-05                                  NS000000681819020700000007160300249400001003XXXXXX
0000000000009801BIFERDIL BAO CR X115 ALGAS MA                               NS000000755819020700000779100100200300001002XXXXXX
0000000000009807FRAG.J ADORE EDP X30 VAP FEM                                NS000010110219020700000334890041789200001002XXXXXX
0000000000009808FRAG.J ADORE EDP X50 VAP FEM                                NS000013918819020700000334890041788500001002XXXXXX
0000000000009851FRAG.212 EDT X50 MEN                                        NS000012613019020700000841106134170400001002XXXXXX
0000000000009869BIUTY CR X260 P/TODO EL CUERPO                              NS000000545519020700000779604560224000001002XXXXXX
0000000000009884KLEENEX PA.DESC 4X10                                        NS000000184319020700000770242554606600004002XXXXXX
0000000000009887SCOTT ROLLO COCINA X3 MULTI 80                              NS000000495719020700000779803815238100003002XXXXXX
0000000000009903BALLERINA X3 PAO MULTIUSO                                   NS000000917419020700000779129064718300001002XXXXXX
0000000000009910ALA BOLSA X800 MULTIACCION POD                              NS000000642519020700000779129001176200001002XXXXXX
0000000000009912DERMOFIL CR X500 REAF CENT ASI                              NS000000716919020700000779029900235100001002XXXXXX
0000000000009932BIFERDIL BAO CR X115 SEM LINO                               NS000000794519020700000779100100212600001002XXXXXX
0000000000009935BIFERDIL AC X200 SEMILLA LINO                               NS000000717419020700000779100100210200001002XXXXXX
0000000000009941CAPILATIS CH X420 AVENA                                     NS000001022819020700000779264000614800001002XXXXXX
0000000000009942CAPILATIS AC X420 TRIGO                                     NS000001022819020700000779264000621600001002XXXXXX
0000000000009943CAPILATIS CH X420 TRIGO                                     NS000001022819020700000779264000620900001002XXXXXX
0000000000009944CAPILATIS CH X420 GIRASOL NUTR                              NS000001022819020700000779264000624700001002XXXXXX
0000000000009945CAPILATIS AC X420 GIRASOL                                   NS000001022819020700000779264000625400001002XXXXXX
0000000000009959PREAL COL X500 LAVANDA                                      NS000000484419020700000779037100529400001002XXXXXX
0000000000009974ISSUE 6.47+OXI+KERATINA                                     NS000000569819020700000779300800614500001002XXXXXX
0000000000009976ISSUE 7.26+OXI+KERATINA                                     NS000000569819020700000779300800618300001002XXXXXX
0000000000009977ISSUE 7.46+OXI+KERATINA                                     NS000000569819020700000779300800619000001002XXXXXX
0000000000009978FRAG.ROMANCE EDP X50 VAP FEMME                              NS000015788619020700000336037700295100001002XXXXXX
0000000000009982ALAMATIC X800 MULTIACCION P/A                               NS000000642519020700000779129001171700001002XXXXXX
0000000000010006CIF CR X750 ORIGINAL C/MICROP                               NS000000493519020700000779129000844100001002XXXXXX
0000000000010010ALA JAB BLANCO 2 X 200                                      NS000000364819020700000779129001074100001002XXXXXX
0000000000010049FRAG.KENZO L EAU EDT X50 PAR M                              NS000009902519020700000335281008789200001002XXXXXX
0000000000010052DANIELLE LATA COL X90+JAB 442/                              NS000002265819020700000779160004427500001002XXXXXX
0000000000010067PAMPERS TOA HUM X56 SENS                                    NS000001371819020700000401540063760800001002XXXXXX
0000000000010109DERMOFIL CR X500 ENERG CHOCOLA                              NS000000716919020700000779029900346400001002XXXXXX
0000000000010112PROCER PROTECTOR BUCAL 1 278                                NS000000413319020700000000000002149200001003XXXXXX
0000000000010113PROCER PROTECTOR BUCAL 2 278                                NS000000413319020700000000000002149300001003XXXXXX
0000000000010199ESPONJA 1000 FLOR EXFOL. LUZON                              NS000000231019020700000779623501000800001003XXXXXX
0000000000010235PET PRINCE DEO X120                                         NS000000497919020700000779348702462300001002XXXXXX
0000000000010249FREE NAIL QUIT X60 FORTAL                                   NS000000147419020700000779806443002600001002XXXXXX
0000000000010250FREE NAIL QUIT X60 U¥AS SENSIB                              NS000000123819020700000779806443003300001002XXXXXX
0000000000010251FREE NAIL QUIT X60 HUMECTANTE                               NS000000147419020700000779806443001900001002XXXXXX
0000000000010252COLGATE CEP TWISTER WHITE 2X1                               NS000000725519020700000770201063168900001002XXXXXX
0000000000010264JOHNS PROTECTOR MAMARIO X24                                 NS000000705819020700000789101004692700024002XXXXXX
0000000000010318NIVEA FAC CR ESENC REG/NOC X50                              NS000001575519020700000400580854777700001002XXXXXX
0000000000010323NIVEA FAC CR Q10 A/ARR NOC X50                              NS000003702919020700000400580855384600001002XXXXXX
0000000000010365CAPILATIS TRAT X200 TEIDO                                   NS000000661119020700000779264000242300001002XXXXXX
0000000000010488PROCER MUEQUERA BUMERER 1 373                               NS000001470019020700000779802852176000001003XXXXXX
0000000000010514COLGATE CEP CLASICO MED                                     NS000000210219020700000789102418460800001002XXXXXX
0000000000010516COLGATE DEN X100 ORIG. SENSIT                               NS000000781319020700000789102413440500001002XXXXXX
0000000000010528BIFERDIL CH X200 P+T ANTICASPA                              NS000001420619020700000779100100247800001002XXXXXX
0000000000010570VO5 FIJ SP X412 FUERTE                                      NS000000873119020700000779152006549700001002XXXXXX
0000000000010620CAPILATIS AC X420 TEIDOS                                    NS000001022819020700000779264000241600001002XXXXXX
0000000000010713ATUCHA TAPONES P/OIDOS SILICON                              NS000000341019020700000779306630004900001003XXXXXX
0000000000010715BIFERDIL CH X200 TE VERDE                                   NS000000825919020700000779100100267600001002XXXXXX
0000000000010716BIFERDIL AC X200 TE VERDE                                   NS000000825919020700000779100100269000001002XXXXXX
0000000000010720BONM JALEA ROJO MUY BRIL                                    NS000000178519020700000779144200231000001002XXXXXX
0000000000010725STONE DES AE X168 EVOLUTION                                 NS000000508119020700000779804521542000001002XXXXXX
0000000000010736NIVEA BALSAM X100 AFTER SENSIT                              NS000001613819020700000871520081306100001002XXXXXX
0000000000010738MANZANIL X250 LOC.ACLARANTE CA                              NS000000376619020700000779158000601000001002XXXXXX
0000000000010739CAPILATIS CH X420 TEIDOS                                    NS000001022819020700000779264000240900001002XXXXXX
0000000000010744MISTRAL EDT X100 URBAN                                      NS000002860019020700000779807438009000001002XXXXXX
0000000000010764SENIGALIA DONNA N43 DG THE ON                               NS000002892519020700000779810314285900001002XXXXXX
0000000000010768PROCER MUEQ NEOP ANC/AJ 2 266                               NS000001312519020700000000000002031800001003XXXXXX
0000000000010769BEBEFANTITO PEZONERA SILIC X1                               NS000000523419020700000779306620006600001003XXXXXX
0000000000010771NIVEA GEL DUCHA X250 MEN VITAL                              NS000000554319020700000400580817238200001002XXXXXX
0000000000010772NIVEA GEL DUCHA X250 CREM SOFT                              NS000000554319020700000400580817240500001002XXXXXX
0000000000010788SKIP INTEL X1 LT LIQUIDO DOY P                              NS000002484919020700000779129078559500001002XXXXXX
0000000000010914EUCERIN PH5 SYNDET BARRA X100                               NS000002236319020700000400580008638000001002XXXXXX
0000000000010920EMAL DIAMA CR DEP X130 FLORAL                               NS000000484619020700000779158000109100001002XXXXXX
0000000000010921DEPILORM CR X60 FLORA DEP ROST                              NS000000420119020700000779158000204300001002XXXXXX
0000000000010939ALA DET.CRIST X750 LIMON                                    NS000000312519020700000779129001245500001002XXXXXX
0000000000010943HISOPOS ESTRELLA X125                                       NS000000399219020700000779006400224100001002XXXXXX
0000000000010988POXIPOL UNI POX X25 PEGAMENTO                               NS000000256019020700000779040001858500001003XXXXXX
0000000000011020FREE NAIL QUIT X180 FORTALECED                              NS000000310919020700000779806443025500001002XXXXXX
0000000000011021FREE NAIL QUIT X180 U¥AS SENSI                              NS000000310919020700000779806443026200001002XXXXXX
0000000000011028FRAG.CAR HERRERA EDP X100 FEM                               NS000016414019020700000841106106160200001002XXXXXX
0000000000011147EST.STONE DEO + COL MILENIUM                                NS000002529719020700000779817571076500001002XXXXXX
0000000000011161CUTEX ESM 18 NEGRO NOCHE                                    NS000000486119020700000779041664018300001002XXXXXX
0000000000011162CUTEX ESM 22 VERDE AQUA                                     NS000000486119020700000779041664022000001002XXXXXX
0000000000011163CUTEX ESM 07 ROJO CARMIN                                    NS000000486119020700000779041664007700001002XXXXXX
0000000000011181VIDOL TALCO X250 FLORAL BOLSA                               NS000000250419020700000779037100011400001002XXXXXX
0000000000011255FRAG.SALV DALI X30 LAGUNA H                                 NS000002885419020700000333143640401600001002XXXXXX
0000000000011260LABELLO PROT LAB CEREZA                                     NS000000533819020700000779196985077700001002XXXXXX
0000000000011274NUTRISSE 81 AVENA                                           NS000002109519020700000789970611540700001002XXXXXX
0000000000011276NUTRISSE 53 CAFE AMARETTO                                   NS000002109519020700000789970611515500001002XXXXXX
0000000000011279NUTRISSE 40 CAFE+TRAT                                       NS000002109519020700000789970611502500001002XXXXXX
0000000000011287FRAG.ORGANZA EDP X30 VAP FEM                                NS000008933019020700000327487821230900001002XXXXXX
0000000000011295COLBERT NOIR EDT X90 C/VAP                                  NS000001995119020700000779160017443900001002XXXXXX
0000000000011317PIBES COL X80 FUTURE KIDS                                   NS000001439819020700000779160005016000001002XXXXXX
0000000000011318COQUETERIAS COL X80 FUNNY                                   NS000001439819020700000779160004125000001002XXXXXX
0000000000011718PALMOLIVE JAB LIQ X250 LECH/MI                              NS000000533819020700000789102417879900001002XXXXXX
0000000000011747TORTULAN PH CR X110 ANTI ARRUG                              NS000000770019020700000779604560247900001002XXXXXX
0000000000011748TORTULAN PH CR X110 HIDRAT/NUT                              NS000000660019020700000779604560244800001002XXXXXX
0000000000011749TORTULAN PH CR X110 HIDR.DIA                                NS000000660019020700000779604500070100001002XXXXXX
0000000000011750TORTULAN PH TONICO X200 REFRES                              NS000000660019020700000779604500082400001002XXXXXX
0000000000011751TORTULAN PH LECHE X200 DEMAQ.                               NS000000858019020700000779604500074900001002XXXXXX
0000000000011752TORTULAN CR NUTR X110 ROSA MOS                              NS000000770019020700000779604500038100001002XXXXXX
0000000000011753TORTULAN CR NUTR X110 ALOE VER                              NS000000770019020700000779604500081700001002XXXXXX
0000000000011754TORTULAN SEL EMUL X200 HIDR                                 NS000000770019020700000779604560245500001002XXXXXX
0000000000011755TORTULAN SEL GEL CR X110 HIDR                               NS000000704019020700000779604560246200001002XXXXXX
0000000000011756TORTULAN SEL CR X110 ANTI ARR                               NS000000770019020700000779604560243100001002XXXXXX
0000000000011757TORTULAN PH CR X110 NUTR NOCHE                              NS000000660019020700000779604500069500001002XXXXXX
0000000000011765BIFERDIL TRAT X115 ANTI FRIZZ                               NS000000825919020700000779100100281200001002XXXXXX
0000000000011772CORTA CUTICULA XZN                                          NS000000177419020700000000000001688600001003XXXXXX
0000000000011773PINZA DEP HUECA NEGRA                                       NS000000104119020700000779809001006300001003XXXXXX
0000000000011792BROCHA AF CHICA COLORES VP                                  NS000000332419020700000779673301042500001002XXXXXX
0000000000011793BROCHA AF MADERA CHICA VP                                   NS000000332419020700000779673301040100001002XXXXXX
0000000000011805TRIM NAVAJIN IMP PLAST TITANIA                              NS000000137519020700000400857605000500001002XXXXXX
0000000000011872NEUTR H/SKIN CR X40 ANT/AR F                                NS000001926719020700000007050106120600001002XXXXXX
0000000000011932ALA DET.X750 GLICERINA                                      NS000000312519020700000779129001239400001002XXXXXX
0000000000011948NIVEA SUN F30 PROT HIDRX200                                 NS000002152719020700000400580855572700001002XXXXXX
0000000000011968ADIDAS EDT FEM GET READY X50                                NS000001057919020700000360734979613600001002XXXXXX
0000000000011977PAMPERS TOA HUM X12 SENSITIVE                               NS000000321919020700000401540063649600001002XXXXXX
0000000000012107PLANCHA GAMA CERAMIC FRISE                                  NS000006858019020700000802327709845900001003XXXXXX
0000000000012114RAYITO SOL F50 PROT CR X200                                 NS000002573119020700000779604510235100001002XXXXXX
0000000000012119RAYITO SOL POST S GEL ALOEX200                              NS000001230619020700000779604500098500001002XXXXXX
0000000000012120RAYITO SOL F18 BR CR POMO X70                               NS000001118819020700000779604500003900001002XXXXXX
0000000000012121RAYITO SOL F8 BR CR POMO X70                                NS000001062819020700000779604500002200001002XXXXXX
0000000000012122RAYITO SOL BR X70 C/FILT POM                                NS000001006919020700000779604500001500001002XXXXXX
0000000000012140ELITE R/COC X3 DISE¥O 70 PA¥OS                              NS000000387419020700000779025002238100003002XXXXXX
0000000000012204HINDS EMUL X350 INTRA HIDRA                                 NS000000850519020700000779464061002800001002XXXXXX
0000000000012213BROCHA AF MADERA GRANDE VP                                  NS000000448619020700000779673301043200001002XXXXXX
0000000000012216ORAL B ENJ X500 MENTA REFRESCA                              NS000001124919020700000750108645301600001002XXXXXX
0000000000012258ELITE SERV GOLD DISE¥O X35                                  NS000000250219020700000779025002311100001002XXXXXX
0000000000012308CURITAS X20 ELASTICAS                                       NS000000280719020700000770200346937400020003XXXXXX
0000000000012310CURITAS X20 TRANSPAREN SURTIDA                              NS000000338019020700000770200346930500020003XXXXXX
0000000000012317CIEL EDT X50 VAP                                            NS000001872419020700000779160003012400001002XXXXXX
0000000000012318CIEL DES AE X123                                            NS000000723119020700000779160003034600001002XXXXXX
0000000000012319CIEL DES AE X186                                            NS000000796919020700000779160003045200001002XXXXXX
0000000000012320CIEL COL X250 FCO                                           NS000001394619020700000779160003073500001002XXXXXX
0000000000012373HEN PRAVIA JAB X150 CREMOSO HI                              NS000000232919020700000779039600043400001002XXXXXX
0000000000012394ANTIALL TRAT X150 TIERRA BARRO                              NS000000376419020700000779152009764100001002XXXXXX
0000000000012478PRIME PRES X3 TACHAS NEGRO                                  NS000000234719020700000779151920009000003002XXXXXX
0000000000012597SUN PROGRESS ABRILLANTAD X500                               NS000002313619020700000871170004590200001002XXXXXX
0000000000012598SUN POLVO P/MAQ LAVAV X1KG BOT                              NS000002254919020700000779129000127500001002XXXXXX
0000000000012605CARILINA PA BOX X75 FRIENDS                                 NS000000227919020700000779025005428300001002XXXXXX
0000000000012630BIO COLOR MASC 5.62 CAS/CL/CIR                              NS000000909919020700000779100100291100001002XXXXXX
0000000000012632BIO COLOR MASC 5 CAST/CLARO                                 NS000000909919020700000779100100290400001002XXXXXX
0000000000012635BIO COLOR MASC 9 RUBIO MUY CLA                              NS000000909919020700000779100100305500001002XXXXXX
0000000000012641BIO COLOR MASC 4 CASTA¥O                                    NS000000909919020700000779100100287400001002XXXXXX
0000000000012644BIO COLOR MASC 6.66 ROJO PROFU                              NS000000909919020700000779100100295900001002XXXXXX
0000000000012645BIO COLOR MASC 5.3 CAST/CL/DOR                              NS000000909919020700000779100100292800001002XXXXXX
0000000000012660ORAL B CEP KIDS STAGES 1                                    NS000000491719020700000301426027893900001002XXXXXX
0000000000012661ORAL B CEP KIDS STAGES 2                                    NS000000491419020700000301426027928800002002XXXXXX
0000000000012662ORAL B CEP KIDS STAGES 5-7                                  NS000000491719020700000301426027926400001002XXXXXX
0000000000012695TENDENCE ALANAIS EDT X50                                    NS000001118719020700000779804521617500001002XXXXXX
0000000000012696TENDENCE 214 FOR WOMAN EDT X50                              NS000001118719020700000779804521614400001002XXXXXX
0000000000012697TENDENCE KEVZO FOR MEN EDT X50                              NS000001118719020700000779804521612000001002XXXXXX
0000000000012698TENDENCE PARFUM D ETE EDT X50                               NS000001118719020700000779804521615100001002XXXXXX
0000000000012699TENDENCE AMARELLO EDT X50                                   NS000001118719020700000779804521618200001002XXXXXX
0000000000012700TENDENCE MARCO POLO EDT X50                                 NS000001118719020700000779804521613700001002XXXXXX
0000000000012701TENDENCE HIERRO FOR ME EDT X50                              NS000001118719020700000779804521611300001002XXXXXX
0000000000012702TENDENCE 214 FOR MEN EDT X50                                NS000001118719020700000779804521609000001002XXXXXX
0000000000012703TENDENCE CAROLA FOR WO EDT X50                              NS000001118719020700000779804521619900001002XXXXXX
0000000000012704TENDENCE OK (CK ONE) EDT X50                                NS000001118719020700000779804521608300001002XXXXXX
0000000000012706TENDENCE AQU DI GREG H EDT X50                              NS000001118719020700000779804521610600001002XXXXXX
0000000000012709BIFERDIL CH X200 ALOE VERA                                  NS000000710319020700000779100100320800001002XXXXXX
0000000000012710BIFERDIL AC X200 ALOE VERA                                  NS000000717419020700000779100100321500001002XXXXXX
0000000000012712BIFERDIL AC X250 CAB TRAT C/CO                              NS000001018419020700000779100100334500001002XXXXXX
0000000000012725DANIELLE COL X90 JOLIE NVA                                  NS000001013719020700000779160004503600001002XXXXXX
0000000000012755BIFERDIL CH X250 ANTIOXIDANTE                               NS000001294819020700000779100100337600001002XXXXXX
0000000000012756BIFERDIL AC X250 ANTIOXIDANTE                               NS000000888519020700000779100100336900001002XXXXXX
0000000000012762NIVEA ESP GEL AF X200 SENSITIV                              NS000001038919020700000400580822912300001002XXXXXX
0000000000012786KEVIN DES AE X250                                           NS000000848619020700000779160003734500001002XXXXXX
0000000000012787KEVIN DES AE X150                                           NS000000774819020700000779160003723900001002XXXXXX
0000000000012789BIFERDIL LOC X120 BRUSHING/RUL                              NS000000542419020700000779100100056600001002XXXXXX
0000000000012809GOMINA FIJ X150 CLASICA                                     NS000000222119020700000779806443029300001002XXXXXX
0000000000012810GOMINA FIJ X150 FUERTE                                      NS000000222119020700000779806443031600001002XXXXXX
0000000000012811GOMINA FIJ X150 HUMEDO                                      NS000000222119020700000779806443027900001002XXXXXX
0000000000012821NOUGAT 4.1 GRIS HUMO MATIZ                                  NS000000369319020700000779144202113700001002XXXXXX
0000000000012845NIVEA WOM ANT BOL FRESH NATUR                               NS000000560219020700000400580825759100001002XXXXXX
0000000000012847NIVEA WOM ANT BOL DOUBLE EFFE                               NS000000560219020700000400580825772000001002XXXXXX
0000000000012853CIF CR X750 LIMON                                           NS000000493519020700000779129000845800001002XXXXXX
0000000000012858PROSEC ADULTO C/GEL X20 GRANDE                              NS000000802619020700000779803633270900020002XXXXXX
0000000000012966SENSODYNE DENT X50 PROT.TOTAL                               NS000000574919020700000789600941927000001002XXXXXX
0000000000012976MISTRAL DEO AER X150 BLUEWATER                              NS000001320019020700000779807438003800001002XXXXXX
0000000000012977TENDENCE FLOWERSPIRIT EDT X50                               NS000001118719020700000779804521633500001002XXXXXX
0000000000012978TENDENCE DANZA EDT X50                                      NS000001118719020700000779804521630400001002XXXXXX
0000000000012994FULTON JAB X100 BEBE BOLSA NVO                              NS000000258219020700000779062601019600001002XXXXXX
0000000000012997TENDENCE FAR AWAY FAHR EDT X50                              NS000001118719020700000779804521632800001002XXXXXX
0000000000013021TENDENCE AQU DI GREG F EDT X50                              NS000001118719020700000779804521616800001002XXXXXX
0000000000013049JESSAMY UAS POST BLISTER                                    NS000000054319020700000779492255072100001003XXXXXX
0000000000013093CHESTER ICE EDT X170                                        NS000001542219020700000779160006071800001002XXXXXX
0000000000013099EMAL DIAMA CE DEP X80 BOL MICR                              NS000000542319020700000779158000306400001002XXXXXX
0000000000013113NIVEA MEN ANT AER X150 SENSITI                              NS000000766319020700000779196902980700001002XXXXXX
0000000000013164ESPONJA 752 MAN/VEGET/ECON                                  NS000000458519020700000779623500752700001003XXXXXX
0000000000013173BIFERDIL COLOR 5.62 CAS.CL.                                 NS000000523419020700000779100100383300001002XXXXXX
0000000000013174BIFERDIL COLOR 7.3 RUB.DORA                                 NS000000523419020700000779100100385700001002XXXXXX
